{
  "_format": "hh-sol-artifact-1",
  "contractName": "NFTGatedEvent",
  "sourceName": "contracts/NFTGateEvent.sol",
  "abi": [
    {
      "inputs": [
        {
          "internalType": "address",
          "name": "_nftContract",
          "type": "address"
        },
        {
          "internalType": "uint256",
          "name": "_maxParticipants",
          "type": "uint256"
        }
      ],
      "stateMutability": "nonpayable",
      "type": "constructor"
    },
    {
      "anonymous": false,
      "inputs": [
        {
          "indexed": true,
          "internalType": "address",
          "name": "creator",
          "type": "address"
        },
        {
          "indexed": true,
          "internalType": "uint256",
          "name": "eventId",
          "type": "uint256"
        },
        {
          "indexed": true,
          "internalType": "uint256",
          "name": "tokenId",
          "type": "uint256"
        },
        {
          "indexed": false,
          "internalType": "uint256",
          "name": "eventTime",
          "type": "uint256"
        }
      ],
      "name": "CreateEvent",
      "type": "event"
    },
    {
      "anonymous": false,
      "inputs": [
        {
          "indexed": true,
          "internalType": "address",
          "name": "participant",
          "type": "address"
        },
        {
          "indexed": true,
          "internalType": "uint256",
          "name": "tokenId",
          "type": "uint256"
        }
      ],
      "name": "GrantAccessToEvent",
      "type": "event"
    },
    {
      "inputs": [
        {
          "internalType": "uint256",
          "name": "eventId",
          "type": "uint256"
        },
        {
          "internalType": "uint256",
          "name": "tokenId",
          "type": "uint256"
        },
        {
          "internalType": "uint256",
          "name": "eventTime",
          "type": "uint256"
        }
      ],
      "name": "createEvent",
      "outputs": [],
      "stateMutability": "nonpayable",
      "type": "function"
    },
    {
      "inputs": [
        {
          "internalType": "uint256",
          "name": "",
          "type": "uint256"
        }
      ],
      "name": "eventParticipants",
      "outputs": [
        {
          "internalType": "uint256",
          "name": "",
          "type": "uint256"
        }
      ],
      "stateMutability": "view",
      "type": "function"
    },
    {
      "inputs": [
        {
          "internalType": "uint256",
          "name": "",
          "type": "uint256"
        }
      ],
      "name": "eventRegistration",
      "outputs": [
        {
          "internalType": "bool",
          "name": "",
          "type": "bool"
        }
      ],
      "stateMutability": "view",
      "type": "function"
    },
    {
      "inputs": [
        {
          "internalType": "address",
          "name": "",
          "type": "address"
        }
      ],
      "name": "grantAccess",
      "outputs": [
        {
          "internalType": "address",
          "name": "participant",
          "type": "address"
        },
        {
          "internalType": "uint256",
          "name": "tokenId",
          "type": "uint256"
        },
        {
          "internalType": "uint256",
          "name": "eventTime",
          "type": "uint256"
        }
      ],
      "stateMutability": "view",
      "type": "function"
    },
    {
      "inputs": [
        {
          "internalType": "uint256",
          "name": "eventId",
          "type": "uint256"
        },
        {
          "internalType": "uint256",
          "name": "tokenId",
          "type": "uint256"
        }
      ],
      "name": "grantAccessToEvent",
      "outputs": [],
      "stateMutability": "nonpayable",
      "type": "function"
    },
    {
      "inputs": [],
      "name": "maxParticipants",
      "outputs": [
        {
          "internalType": "uint256",
          "name": "",
          "type": "uint256"
        }
      ],
      "stateMutability": "view",
      "type": "function"
    },
    {
      "inputs": [],
      "name": "nftContract",
      "outputs": [
        {
          "internalType": "contract IERC721",
          "name": "",
          "type": "address"
        }
      ],
      "stateMutability": "view",
      "type": "function"
    },
    {
      "inputs": [],
      "name": "owner",
      "outputs": [
        {
          "internalType": "address",
          "name": "",
          "type": "address"
        }
      ],
      "stateMutability": "view",
      "type": "function"
    },
    {
      "inputs": [
        {
          "internalType": "address",
          "name": "",
          "type": "address"
        }
      ],
      "name": "userEventCount",
      "outputs": [
        {
          "internalType": "uint256",
          "name": "",
          "type": "uint256"
        }
      ],
      "stateMutability": "view",
      "type": "function"
    }
  ],
  "bytecode": "0x60806040523480156200001157600080fd5b5060405162000ffe38038062000ffe83398181016040528101906200003791906200016c565b816000806101000a81548173ffffffffffffffffffffffffffffffffffffffff021916908373ffffffffffffffffffffffffffffffffffffffff16021790555033600160006101000a81548173ffffffffffffffffffffffffffffffffffffffff021916908373ffffffffffffffffffffffffffffffffffffffff160217905550806002819055505050620001b3565b600080fd5b600073ffffffffffffffffffffffffffffffffffffffff82169050919050565b6000620000f982620000cc565b9050919050565b6200010b81620000ec565b81146200011757600080fd5b50565b6000815190506200012b8162000100565b92915050565b6000819050919050565b620001468162000131565b81146200015257600080fd5b50565b60008151905062000166816200013b565b92915050565b60008060408385031215620001865762000185620000c7565b5b600062000196858286016200011a565b9250506020620001a98582860162000155565b9150509250929050565b610e3b80620001c36000396000f3fe608060405234801561001057600080fd5b50600436106100935760003560e01c80638a0a6ca9116100665780638a0a6ca9146101345780638da5cb5b14610164578063b27ca60a14610182578063d56d229d146101b2578063f6143d85146101d057610093565b80630ae5e7391461009857806324924bf7146100ca5780632b35f520146100e8578063377e7bdf14610104575b600080fd5b6100b260048036038101906100ad91906108d5565b6101ec565b6040516100c19392919061092a565b60405180910390f35b6100d2610236565b6040516100df9190610961565b60405180910390f35b61010260048036038101906100fd91906109a8565b61023c565b005b61011e600480360381019061011991906109e8565b61053b565b60405161012b9190610a30565b60405180910390f35b61014e600480360381019061014991906109e8565b61055b565b60405161015b9190610961565b60405180910390f35b61016c610573565b6040516101799190610a4b565b60405180910390f35b61019c600480360381019061019791906108d5565b610599565b6040516101a99190610961565b60405180910390f35b6101ba6105b1565b6040516101c79190610ac5565b60405180910390f35b6101ea60048036038101906101e59190610ae0565b6105d5565b005b60036020528060005260406000206000915090508060000160009054906101000a900473ffffffffffffffffffffffffffffffffffffffff16908060010154908060020154905083565b60025481565b6004600083815260200190815260200160002060009054906101000a900460ff1661029c576040517f08c379a000000000000000000000000000000000000000000000000000000000815260040161029390610b90565b60405180910390fd5b6002546005600084815260200190815260200160002054106102f3576040517f08c379a00000000000000000000000000000000000000000000000000000000081526004016102ea90610bfc565b60405180910390fd5b3373ffffffffffffffffffffffffffffffffffffffff1660008054906101000a900473ffffffffffffffffffffffffffffffffffffffff1673ffffffffffffffffffffffffffffffffffffffff16636352211e836040518263ffffffff1660e01b81526004016103639190610961565b602060405180830381865afa158015610380573d6000803e3d6000fd5b505050506040513d601f19601f820116820180604052508101906103a49190610c31565b73ffffffffffffffffffffffffffffffffffffffff16146103fa576040517f08c379a00000000000000000000000000000000000000000000000000000000081526004016103f190610caa565b60405180910390fd5b60405180606001604052803373ffffffffffffffffffffffffffffffffffffffff16815260200182815260200142815250600360003373ffffffffffffffffffffffffffffffffffffffff1673ffffffffffffffffffffffffffffffffffffffff16815260200190815260200160002060008201518160000160006101000a81548173ffffffffffffffffffffffffffffffffffffffff021916908373ffffffffffffffffffffffffffffffffffffffff160217905550602082015181600101556040820151816002015590505060016005600084815260200190815260200160002060008282546104ec9190610cf9565b92505081905550803373ffffffffffffffffffffffffffffffffffffffff167fb596c05d2a504ac7be82d968d0b42ca12218dbfd62aba5af8d5a6b54b8128d8c60405160405180910390a35050565b60046020528060005260406000206000915054906101000a900460ff1681565b60056020528060005260406000206000915090505481565b600160009054906101000a900473ffffffffffffffffffffffffffffffffffffffff1681565b60066020528060005260406000206000915090505481565b60008054906101000a900473ffffffffffffffffffffffffffffffffffffffff1681565b813373ffffffffffffffffffffffffffffffffffffffff1660008054906101000a900473ffffffffffffffffffffffffffffffffffffffff1673ffffffffffffffffffffffffffffffffffffffff16636352211e836040518263ffffffff1660e01b81526004016106469190610961565b602060405180830381865afa158015610663573d6000803e3d6000fd5b505050506040513d601f19601f820116820180604052508101906106879190610c31565b73ffffffffffffffffffffffffffffffffffffffff16146106dd576040517f08c379a00000000000000000000000000000000000000000000000000000000081526004016106d490610caa565b60405180910390fd5b42821161071f576040517f08c379a000000000000000000000000000000000000000000000000000000000815260040161071690610d79565b60405180910390fd5b6004600085815260200190815260200160002060009054906101000a900460ff1615610780576040517f08c379a000000000000000000000000000000000000000000000000000000000815260040161077790610de5565b60405180910390fd5b60016004600086815260200190815260200160002060006101000a81548160ff021916908315150217905550600060056000868152602001908152602001600020819055506001600660003373ffffffffffffffffffffffffffffffffffffffff1673ffffffffffffffffffffffffffffffffffffffff16815260200190815260200160002060008282546108159190610cf9565b9250508190555082843373ffffffffffffffffffffffffffffffffffffffff167f762fb68eba2055586e0804eea5339faf19578e04a0f517091d380e2e11e68eba856040516108649190610961565b60405180910390a450505050565b600080fd5b600073ffffffffffffffffffffffffffffffffffffffff82169050919050565b60006108a282610877565b9050919050565b6108b281610897565b81146108bd57600080fd5b50565b6000813590506108cf816108a9565b92915050565b6000602082840312156108eb576108ea610872565b5b60006108f9848285016108c0565b91505092915050565b61090b81610897565b82525050565b6000819050919050565b61092481610911565b82525050565b600060608201905061093f6000830186610902565b61094c602083018561091b565b610959604083018461091b565b949350505050565b6000602082019050610976600083018461091b565b92915050565b61098581610911565b811461099057600080fd5b50565b6000813590506109a28161097c565b92915050565b600080604083850312156109bf576109be610872565b5b60006109cd85828601610993565b92505060206109de85828601610993565b9150509250929050565b6000602082840312156109fe576109fd610872565b5b6000610a0c84828501610993565b91505092915050565b60008115159050919050565b610a2a81610a15565b82525050565b6000602082019050610a456000830184610a21565b92915050565b6000602082019050610a606000830184610902565b92915050565b6000819050919050565b6000610a8b610a86610a8184610877565b610a66565b610877565b9050919050565b6000610a9d82610a70565b9050919050565b6000610aaf82610a92565b9050919050565b610abf81610aa4565b82525050565b6000602082019050610ada6000830184610ab6565b92915050565b600080600060608486031215610af957610af8610872565b5b6000610b0786828701610993565b9350506020610b1886828701610993565b9250506040610b2986828701610993565b9150509250925092565b600082825260208201905092915050565b7f4576656e74206973206e6f742072656769737465726564000000000000000000600082015250565b6000610b7a601783610b33565b9150610b8582610b44565b602082019050919050565b60006020820190508181036000830152610ba981610b6d565b9050919050565b7f4576656e742069732066756c6c00000000000000000000000000000000000000600082015250565b6000610be6600d83610b33565b9150610bf182610bb0565b602082019050919050565b60006020820190508181036000830152610c1581610bd9565b9050919050565b600081519050610c2b816108a9565b92915050565b600060208284031215610c4757610c46610872565b5b6000610c5584828501610c1c565b91505092915050565b7f4e6f7420616e204e465420686f6c646572000000000000000000000000000000600082015250565b6000610c94601183610b33565b9150610c9f82610c5e565b602082019050919050565b60006020820190508181036000830152610cc381610c87565b9050919050565b7f4e487b7100000000000000000000000000000000000000000000000000000000600052601160045260246000fd5b6000610d0482610911565b9150610d0f83610911565b9250828201905080821115610d2757610d26610cca565b5b92915050565b7f4576656e74206d75737420737461727420696e20746865206675747572650000600082015250565b6000610d63601e83610b33565b9150610d6e82610d2d565b602082019050919050565b60006020820190508181036000830152610d9281610d56565b9050919050565b7f4576656e7420494420616c726561647920726567697374657265640000000000600082015250565b6000610dcf601b83610b33565b9150610dda82610d99565b602082019050919050565b60006020820190508181036000830152610dfe81610dc2565b905091905056fea2646970667358221220bb4757bb7e9663f81dcf39a01c2bd2dababc479037f6bde7a6a1795f018079ee64736f6c63430008140033",
  "linkReferences": {},
  "deployedLinkReferences": {}
}